:100000000C9463000C948B000C948B000C948B006C
:100010000C948B000C948B000C948B000C948B0034
:100020000C948B000C948B000C948B000C94D601D8
:100030000C948B000C948B000C948B000C948B0014
:100040000C94CA030C948B000C94AE060C94E0063E
:100050000C948B000C948B000C948B000C948B00F4
:100060000C948B000C948B0000000008000201002F
:100070000003040700000000000000000102040863
:100080001020408001020408102001020408102002
:10009000040404040404040402020202020203032E
:1000A00003030303000000002300260029000000D2
:1000B0000000250028002B0000000000240027007D
:1000C0002A00D201100711241FBECFEFD8E0DEBFF7
:1000D000CDBF11E0A0E0B1E0E8EAF2E102C0059096
:1000E0000D92A238B107D9F722E0A2E8B1E001C031
:1000F0001D92AE35B207E1F710E0C6ECD0E004C0C7
:100100002297FE010E943F09C23CD107C9F70E9415
:10011000C5080C9452090C940000CF92DF92EF9224
:10012000FF920F931F93E82FF92F05C0015011097B
:100130002109310961F1908196239417B9F305C023
:10014000015011092109310911F19081962394136D
:10015000F7CFC12CD12CE12CF12C0AC08FEFC81A9B
:10016000D80AE80AF80A0C151D052E053F0579F096
:1001700080818623841791F36C2D7D2D8E2D9F2DEC
:100180001F910F91FF90EF90DF90CF90089560E066
:1001900070E080E090E01F910F91FF90EF90DF9072
:1001A000CF900895089561E083E00E9407058AE0FA
:1001B00090E00E945F0460E083E00E94070520E475
:1001C00032E44FE050E061E082E00E943D05609340
:1001D0008C0170938D0180938E0190938F012AE39F
:1001E00030E040E050E00E941309309391012093E9
:1001F0009001C90108956AE570E082E891E00E94EB
:10020000650364EF71E080E090E00E9437040E9493
:10021000D30090938B0180938A0160E070E082E8C4
:1002200091E00E94650364EF71E080E090E00E943D
:1002300037040E94D300909389018093880163EB77
:1002400070E082E891E00E94650364EF71E080E075
:1002500090E00E9437040E94D3009093870180931E
:10026000860140918A0150918B0120918801309143
:100270008901841795072CF42417350714F481E0BD
:100280000FC0821793072CF44217530714F482E02F
:1002900007C04817590734F4281739071CF483E0BE
:1002A0008093850180918501089569E070E082E87E
:1002B00091E00E942C0361E085E00E94CE0461E0A1
:1002C00086E00E94CE0461E08BE00E94CE0461E0F3
:1002D0008AE00E94CE0426E040E855E260E070E04B
:1002E00081EC91E00E944C0661E083E00E94CE0424
:1002F00060E082E00E94CE046091040170910501EB
:10030000643B71052CF482E891E00E94650304C00F
:10031000109205011092040168EE73E080E090E015
:100320000E9437040E94FB0066E071E081EC91E0DE
:100330000E94910760918A0170918B014AE050E020
:1003400081EC91E00E9441086AE171E081EC91E06A
:100350000E94910760918801709189014AE050E004
:1003600081EC91E00E9441086EE271E081EC91E045
:100370000E94910760918601709187014AE050E0E8
:1003800081EC91E00E94410861E471E081EC91E030
:100390000E9491074AE050E06091850181EC91E074
:1003A0000C94660882E891E00C9492021F920F92DE
:1003B0000FB60F9211242F933F934F935F936F9338
:1003C0007F938F939F93AF93BF93EF93FF9380910E
:1003D000930187FF05C010928500109284001AC017
:1003E00020919301332727FD30958091920190E071
:1003F000281739077CF480919301992787FD909500
:10040000FC01EE0FFF1FE80FF91FEC56FE4F808135
:1004100086FD15C0809193018F5F80939301209199
:100420009301332727FD30958091920190E02817A2
:100430003907BCF4809193018C305CF112C080913B
:100440009301992787FD9095FC01EE0FFF1FE80FA0
:10045000F91FEC56FE4F808160E08F730E94070504
:10046000D9CF8091840090918500049680349C4976
:1004700018F480E49CE905C0809184009091850087
:10048000049690938900809388008FEF8093930166
:1004900038C0209184003091850080919301992784
:1004A00087FD9095FC01EE0FFF1FE80FF91FEC563A
:1004B000FE4F81819281820F931F909389008093D8
:1004C000880080919301992787FD9095FC01EE0F9C
:1004D000FF1FE80FF91FEC56FE4F808186FF11C009
:1004E00080919301992787FD9095FC01EE0FFF1FE6
:1004F000E80FF91FEC56FE4F808161E08F730E9478
:100500000705FF91EF91BF91AF919F918F917F91DF
:100510006F915F914F913F912F910F900FBE0F9070
:100520001F901895209192012C30A0F431E0320FE9
:1005300030939201FC012083822F90E0FC01EE0FAA
:10054000FF1FE80FF91FEC56FE4F88EB9BE09283EC
:10055000818308952FEFFC0120830895DF92EF92AD
:10056000FF920F931F93CF93DF93EC01D62E7A0166
:10057000890188818C3008F066C061E08D2D0E9471
:10058000CE048881A82FB0E0FD01EE0FFF1FEA0F17
:10059000FB1FEC56FE4F2D2D2F739081907C922BDC
:1005A000908360E272E06E197F0977FF02C06D5F91
:1005B0007F4F7595679575956795698340E659E016
:1005C000401B510B57FF02C04D5F5F4F559547953C
:1005D000559547954A836CE00E94E5089CE0899F09
:1005E000B001112420E030E0A901460F571FFA01A5
:1005F000EE0FFF1FE40FF51FEC56FE4F908196FDA6
:1006000016C02F5F3F4F2C30310571F781110FC09D
:100610001092800082E080938100109285001092F9
:100620008400B19A80916F00826080936F0088810E
:1006300090E0FC01EE0FFF1FE80FF91FEC56FE4F94
:100640008081806480838881DF91CF911F910F9199
:10065000FF90EF90DF90089520E639E040E252E00D
:100660000C94AE02FC0180818C3070F5918128E8F9
:1006700030E0291B310997FD3395220F331F220FDC
:10068000331F621773077CF0928128E532E0291B43
:10069000310997FD3395220F331F220F331F621745
:1006A00073070CF49B0122503109220F331F4FB7FF
:1006B000F89490E0FC01EE0FFF1FE80FF91FEC56D5
:1006C000FE4F328321834FBF08954F925F926F9206
:1006D0007F92AF92BF92CF92DF92EF92FF920F93F1
:1006E0001F93CF93DF93EC01603282E078070CF028
:1006F00040C077FD06C0653B71052CF064EB70E0EF
:1007000002C060E070E0898128E830E0281B3109F0
:1007100087FD3395220F331F220F331F5901CC243D
:10072000B7FCC094DC2C882777FD8095982F2A8110
:1007300048E552E0421B510927FD5395440F551FD0
:10074000440F551F2A01662457FC6094762C7F9233
:100750006F925F924F9214EBE12EF12C00E010E0CB
:1007600020E030E0A9010E947D080F900F900F90CB
:100770000F90CE01DF91CF911F910F91FF90EF90DD
:10078000DF90CF90BF90AF907F906F905F904F9031
:100790000C9432031F920F920FB60F9211242F93D5
:1007A0003F938F939F93AF93BF938091B9019091A3
:1007B000BA01A091BB01B091BC013091B80123E016
:1007C000230F2D3720F40196A11DB11D05C026E889
:1007D000230F0296A11DB11D2093B8018093B9018A
:1007E0009093BA01A093BB01B093BC018091BD016D
:1007F0009091BE01A091BF01B091C0010196A11DD1
:10080000B11D8093BD019093BE01A093BF01B09331
:10081000C001BF91AF919F918F913F912F910F9008
:100820000FBE0F901F9018953FB7F8948091BD01AF
:100830009091BE01A091BF01B091C00126B5A89BC7
:1008400005C02F3F19F00196A11DB11D3FBF6627BE
:10085000782F892F9A2F620F711D811D911D42E003
:10086000660F771F881F991F4A95D1F70895CF9279
:10087000DF92EF92FF92CF93DF936B017C010E9496
:100880001404EB01C114D104E104F10489F00E94C5
:10089000D4080E9414046C1B7D0B683E734090F3D7
:1008A00081E0C81AD108E108F108C851DC4FEACF4D
:1008B000DF91CF91FF90EF90DF90CF90089582303D
:1008C000910538F0880F991F880F991F0597019798
:1008D000F1F70895789484B5826084BD84B5816011
:1008E00084BD85B5826085BD85B5816085BDEEE638
:1008F000F0E0808181608083E1E8F0E01082808117
:1009000082608083808181608083E0E8F0E0808184
:1009100081608083E1EBF0E0808184608083E0EBA4
:10092000F0E0808181608083EAE7F0E0808184608C
:1009300080838081826080838081816080838081E8
:10094000806880831092C1000895833081F028F47C
:10095000813099F08230A1F008958730A9F0883075
:10096000B9F08430D1F4809180008F7D03C08091F4
:1009700080008F7780938000089584B58F7702C0C0
:1009800084B58F7D84BD08958091B0008F7703C0BA
:100990008091B0008F7D8093B0000895CF93DF9356
:1009A00090E0FC01E458FF4F2491FC01E057FF4F19
:1009B0008491882349F190E0880F991FFC01E85445
:1009C000FF4FA591B49182559F4FFC01C591D491E1
:1009D0009FB7611108C0F8948C91209582238C9365
:1009E000888182230AC0623051F4F8948C91322FAE
:1009F000309583238C938881822B888304C0F8945C
:100A00008C91822B8C939FBFDF91CF9108950F9390
:100A10001F93CF93DF931F92CDB7DEB7282F30E01F
:100A2000F901E859FF4F8491F901E458FF4F1491FF
:100A3000F901E057FF4F04910023C9F0882321F00A
:100A400069830E94A5046981E02FF0E0EE0FFF1F8B
:100A5000E255FF4FA591B4919FB7F8948C91611125
:100A600003C01095812301C0812B8C939FBF0F90F1
:100A7000DF91CF911F910F9108950F931F93762FC0
:100A800090E0FC01E458FF4F6491FC01E057FF4FF8
:100A9000E4917111762FF0E0EE0FFF1FEC55FF4F40
:100AA0008591949189019A013F70472F0E948D0092
:100AB000611571058105910531F06F5F7F4F8F4F93
:100AC0009F4F9F7003C060E070E0CB011F910F91BA
:100AD0000895FC01818D228D90E0805C9F4F821BE8
:100AE00091098F7399270895FC01918D828D981734
:100AF00031F0828DE80FF11D858D90E008958FEF24
:100B00009FEF0895FC01918D828D981761F0828D81
:100B1000DF01A80FB11D5D968C91928D9F5F9F7331
:100B2000928F90E008958FEF9FEF089586E097E011
:100B3000892B49F080E090E0892B29F00E9406077C
:100B400081110C9400000895FC01848DDF01A80F31
:100B5000B11DA35ABF4F2C91848D90E001968F73E5
:100B60009927848FA689B7892C93A089B1898C9104
:100B700080648C93938D848D981306C00288F389CA
:100B8000E02D80818F7D80830895CF93DF93EC01EA
:100B9000888D8823C9F0EA89FB89808185FD05C09D
:100BA000A889B9898C9186FD0FC00FB607FCF5CFD7
:100BB000808185FFF2CFA889B9898C9185FFEDCF1F
:100BC000CE010E94A405E7CFDF91CF910895CF9287
:100BD000DF92FF920F931F93CF93DF931F92CDB7B6
:100BE000DEB76C0181E0D60158968C9358975B96DE
:100BF0009C915B975C968C915C97981307C050967C
:100C0000ED91FC915197808185FD2EC0F601038DF9
:100C100010E00F5F1F4F0F731127F02EF601848D28
:100C2000F81211C00FB607FCF9CFD6015096ED911E
:100C3000FC915197808185FFF1CFC60169830E94A5
:100C4000A4056981EBCF838DE80FF11DE35AFF4FB7
:100C50006083D6015B960C935B975296ED91FC9165
:100C60005397808180620CC0D6015696ED91FC911D
:100C7000579760835096ED91FC91519780818064E5
:100C8000808381E090E00F90DF91CF911F910F91D1
:100C9000FF90DF90CF900895BF92CF92DF92EF92B6
:100CA000FF92CF93DF93EC016A017B01B22EE889BA
:100CB000F98982E08083411581EE5807610571054D
:100CC000A1F060E079E08DE390E0A70196010E9439
:100CD000F108215031094109510956954795379539
:100CE0002795211580E1380798F0E889F989108265
:100CF00060E874E88EE190E0A70196010E94F10897
:100D00002150310941095109569547953795279545
:100D1000EC85FD853083EE85FF852083188EEC8978
:100D2000FD89B082EA89FB89808180618083EA89BC
:100D3000FB89808188608083EA89FB898081806863
:100D40008083EA89FB8980818F7D8083DF91CF91C9
:100D5000FF90EF90DF90CF90BF9008951F920F9279
:100D60000FB60F9211242F938F939F93EF93FF93BE
:100D7000E091D101F091D2018081E091D701F09111
:100D8000D80182FD12C090818091DA018F5F8F734C
:100D90002091DB01821751F0E091DA01F0E0EF538E
:100DA000FE4F958F8093DA0101C08081FF91EF9112
:100DB0009F918F912F910F900FBE0F901F901895BC
:100DC0001F920F920FB60F9211242F933F934F93C0
:100DD0005F936F937F938F939F93AF93BF93EF93A3
:100DE000FF9381EC91E00E94A405FF91EF91BF91E8
:100DF000AF919F918F917F916F915F914F913F91B3
:100E00002F910F900FBE0F901F90189581EC91E0DD
:100E10000E94690521E0892B09F420E0822F0895C2
:100E20001092C4011092C30188EE93E0A0E0B0E0FC
:100E30008093C5019093C601A093C701B093C801E8
:100E400084E691E09093C2018093C10185EC90E02B
:100E50009093CE018093CD0184EC90E09093D001EB
:100E60008093CF0180EC90E09093D2018093D101E8
:100E700081EC90E09093D4018093D30182EC90E0D8
:100E80009093D6018093D50186EC90E09093D801A1
:100E90008093D7011092DA011092DB011092DC01ED
:100EA0001092DD010895CF92DF92EF92FF920F939F
:100EB0001F93CF93DF937C016A01EB0100E010E008
:100EC0000C151D0571F06991D701ED91FC91019010
:100ED000F081E02DC7010995892B19F00F5F1F4F95
:100EE000EFCFC801DF91CF911F910F91FF90EF904D
:100EF000DF90CF9008956115710581F0DB010D90B1
:100F00000020E9F7AD0141505109461B570BDC01A8
:100F1000ED91FC910280F381E02D099480E090E056
:100F200008950C947B07DC01ED91FC910190F08118
:100F3000E02D099460E771E00C947B078F929F92FB
:100F4000AF92BF92CF92DF92EF92FF920F931F93D7
:100F5000CF93DF93CDB7DEB7A1970FB6F894DEBF7E
:100F60000FBECDBF7C01C42EE52FCB01D22E19A21E
:100F700021E02D1510F02AE0D22E8E010F5D1F4FBB
:100F80008D2C912CA12CB12C6C2D7E2FA5019401C0
:100F90000E94F1088C2DD29E801911240150110954
:100FA0008A3014F4805D01C0895CF80180832115CA
:100FB00031054105510521F0C22EE32FCA01E4CFCE
:100FC000B801C7010E947B07A1960FB6F894DEBF57
:100FD0000FBECDBFDF91CF911F910F91FF90EF908A
:100FE000DF90CF90BF90AF909F908F900895CF9259
:100FF000DF92EF92FF920F931F93CF93DF93EC0159
:101000006A017B012115310579F4E881F9810190AC
:10101000F081E02D642FDF91CF911F910F91FF9010
:10102000EF90DF90CF9009942A303105E9F477FFF3
:101030001AC06DE20E9493078C0144275527BA011C
:101040004C195D096E097F092AE0CE010E949E07B6
:10105000800F911FDF91CF911F910F91FF90EF9023
:10106000DF90CF9008952AE0B701A601CE01DF916D
:10107000CF911F910F91FF90EF90DF90CF900C9444
:101080009E070F931F93CF93DF93EC019A01AB015F
:10109000662757FD6095762F0E94F7078C01CE01D9
:1010A0000E949A07800F911FDF91CF911F910F919E
:1010B00008952115310541F4DC01ED91FC91019079
:1010C000F081E02D642F09940C949E070F931F93D9
:1010D000CF93DF93EC019A01462F50E060E070E07F
:1010E0000E9459088C01CE010E949A07800F911F1F
:1010F000DF91CF911F910F9108954F925F926F9260
:101100007F92AF92BF92CF92DF92EF92FF920F93B6
:101110001F93CF93DF93CDB7DEB729013A01621B4E
:10112000730B840B950B29893A894B895C892A19A1
:101130003B094C095D09298B3A8B4B8B5C8B9B01DE
:10114000AC0169897A898B899C890E94D508E41849
:10115000F50806091709A80197010E9413092A0D2D
:101160003B1D4C1D5D1DCA01B901DF91CF911F913F
:101170000F91FF90EF90DF90CF90BF90AF907F9056
:101180006F905F904F90089508950E946A040E94A6
:10119000C4080E945501C6E9D5E00E94D2002097FC
:1011A000E1F30E949605F9CF0895DB018F939F9399
:1011B0000E943209BF91AF91A29F800D911DA39F04
:1011C000900DB29F900D11240895991B79E004C0F1
:1011D000991F961708F0961B881F7A95C9F7809576
:1011E0000895A1E21A2EAA1BBB1BFD010DC0AA1F68
:1011F000BB1FEE1FFF1FA217B307E407F50720F080
:10120000A21BB30BE40BF50B661F771F881F991FFA
:101210001A9469F760957095809590959B01AC0143
:10122000BD01CF010895052E97FB1EF400940E9486
:101230002A0957FD07D00E94F10807FC03D04EF49D
:101240000C942A0950954095309521953F4F4F4F6A
:101250005F4F089590958095709561957F4F8F4F62
:101260009F4F08950E944309A59F900DB49F900D34
:10127000A49F800D911D11240895EE0FFF1F05906E
:10128000F491E02D0994A29FB001B39FC001A39FE8
:10129000700D811D1124911DB29F700D811D1124AF
:0812A000911D0895F894FFCFA1
:1012A800010000005A004F6465676C6F7363207A11
:1012B8002070727A6F64753A20004F6465676C6FAE
:1012C8007363207A2070726177656A3A20004F64F0
:1012D80065676C6F7363207A206C6577656A3A205E
:1012E8000073616D6F6368F364206A65647A696589
:1012F80020773A20006F646C6567B36F9C3A2000D2
:1013080000000000E7055307690582057405C50557
:101318000D0A006E616E00696E66006F7666002EBB
:021328000000C3
:107E0000112484B714BE81FFF0D085E080938100F7
:107E100082E08093C00088E18093C10086E0809377
:107E2000C20080E18093C4008EE0C9D0259A86E02C
:107E300020E33CEF91E0309385002093840096BBD3
:107E4000B09BFECF1D9AA8958150A9F7CC24DD24C4
:107E500088248394B5E0AB2EA1E19A2EF3E0BF2EE7
:107E6000A2D0813461F49FD0082FAFD0023811F036
:107E7000013811F484E001C083E08DD089C08234E0
:107E800011F484E103C0853419F485E0A6D080C0E4
:107E9000853579F488D0E82EFF2485D0082F10E0AE
:107EA000102F00270E291F29000F111F8ED06801E7
:107EB0006FC0863521F484E090D080E0DECF843638
:107EC00009F040C070D06FD0082F6DD080E0C81688
:107ED00080E7D80618F4F601B7BEE895C0E0D1E017
:107EE00062D089930C17E1F7F0E0CF16F0E7DF06D8
:107EF00018F0F601B7BEE89568D007B600FCFDCFD4
:107F0000A601A0E0B1E02C9130E011968C91119780
:107F100090E0982F8827822B932B1296FA010C0160
:107F200087BEE89511244E5F5F4FF1E0A038BF0790
:107F300051F7F601A7BEE89507B600FCFDCF97BE46
:107F4000E89526C08437B1F42ED02DD0F82E2BD052
:107F50003CD0F601EF2C8F010F5F1F4F84911BD097
:107F6000EA94F801C1F70894C11CD11CFA94CF0C13
:107F7000D11C0EC0853739F428D08EE10CD085E9AC
:107F80000AD08FE07ACF813511F488E018D01DD067
:107F900080E101D065CF982F8091C00085FFFCCF94
:107FA0009093C60008958091C00087FFFCCF809118
:107FB000C00084FD01C0A8958091C6000895E0E648
:107FC000F0E098E1908380830895EDDF803219F02E
:107FD00088E0F5DFFFCF84E1DECF1F93182FE3DFCA
:107FE0001150E9F7F2DF1F91089580E0E8DFEE27F6
:047FF000FF270994CA
:027FFE00040479
:0400000300007E007B
:00000001FF
